:020000040800F2
:1000000000000220CD480108C5340108D33401089E
:10001000D9340108DF340108E5340108000000008C
:100020000000000000000000000000008DCA000871
:10003000EB34010800000000F9CC000867CD00088F
:100040001D4901081D4901081D4901081D490108F4
:100050001D4901081D490108F93401080735010847
:1000600015350108233501081D4901081D490108FE
:100070001D4901081D4901081D4901081D490108C4
:100080001D4901081D4901081D4901081D490108B4
:100090001D4901081D4901081D4901081D490108A4
:1000A0001D4901081D4901081D4901081D49010894
:1000B000313501081D4901081D4901081D49010884
:1000C0001D4901081D4901081D4901081D49010874
:1000D0001D4901081D490108453501085935010828
:1000E0001D4901081D4901081D4901081D49010854
:1000F0001D4901086D3501081D4901081D49010808
:100100001D4901081D490108813501081D490108E3
:100110001D4901081D490108953501081D490108BF
:100120001D4901081D4901081D4901081D49010813
:100130001D49010800000000000000001D490108E1
:100140001D4901081D4901081D4901081D490108F3
:100150001D4901081D4901081D4901081D490108E3
:100160001D4901081D4901081D4901081D490108D3
:100170001D4901081D4901081D4901080000000032
:10018000000000001D490108000000000000000000
:100190001D49010800000000000000001D49010881
:1001A0000000000000000000000000001D490108E0
:1001B0001D4901081D4901081D4901081D49010883
:0401C0001D490108CC
:1001D00010B5054C237833B9044B13B10448AFF381
:1001E00000800123237010BD1000002000000000DB
:1001F0000C4A010808B5034B1BB103490348AFF390
:10020000008008BD00000000140000200C4A010816
:1002100080B500AF0E4A0E4B1B6843F400731360A9
:100220000B4A0B4B1B6843F480631360084A084B6E
:100230001B6843F480731360032000F0AFFB0020C1
:1002400013F0C2F813F094F80023184680BD00BFE5
:10025000003C024080B500AF134B4FF0FF321A62F2
:10026000114B00221A62104B4FF0FF325A620E4BB4
:1002700000225A620C4B4FF0FF321A610A4B0022E7
:100280001A61094B4FF0FF325A61074B00225A6145
:10029000054B4FF0FF329A61034B00229A6100F048
:1002A0000CF80023184680BD0038024080B400AF2F
:1002B00000BFBD465DF8047B704780B400AF00BF4F
:1002C000BD465DF8047B704780B582B000AF7860B2
:1002D000124B1A68124B1B7819464FF47A73B3FB12
:1002E000F1F3B2FBF3F3184600F09FFB0346002B3B
:1002F00001D001230EE07B680F2B0AD80022796819
:100300004FF0FF3000F055FB064A7B681360002376
:1003100000E0012318460837BD4680BD0C000020D0
:10032000040000200000002080B400AF064B1B78C2
:100330001A46064B1B681344044A136000BFBD46AF
:100340005DF8047B704700BF04000020F03F0020F0
:1003500080B400AF034B1B681846BD465DF8047BB4
:10036000704700BFF03F002080B400AF034B1B6814
:100370001846BD465DF8047B704700BF00000020B2
:1003800080B584B000AF0346FB710023FB730A4BBA
:100390001B78FA799A4209D0074AFB791370074B08
:1003A0001B68184613F010F80346FB73FB7B1846D6
:1003B0001037BD4680BD00BF0400002000000020B3
:1003C00080B400AF034B1B781846BD465DF8047B34
:1003D000704700BF0400002080B584B000AF786093
:1003E000FFF7B6FFB8607B68FB60FB68B3F1FF3FC7
:1003F00005D0094B1B781A46FB681344FB6000BF0D
:10040000FFF7A6FF0246BB68D21AFB689A42F7D3F1
:1004100000BF1037BD4680BD0400002080B400AF8F
:10042000054A054B1B6823F00203136000BFBD465D
:100430005DF8047B704700BF10E000E080B400AFBF
:10044000054A054B1B6843F00203136000BFBD461D
:100450005DF8047B704700BF10E000E080B400AF9F
:10046000024B1846BD465DF8047B70470006070145
:1004700080B400AF034B1B681B0C1846BD465DF8EB
:10048000047B7047002004E080B400AF044B1B687D
:10049000C3F30B031846BD465DF8047B704700BFED
:1004A000002004E080B400AF054A054B5B6843F0D0
:1004B0000103536000BFBD465DF8047B704700BF79
:1004C000002004E080B400AF054A054B5B6823F0D0
:1004D0000103536000BFBD465DF8047B704700BF59
:1004E000002004E080B400AF054A054B5B6843F090
:1004F0000203536000BFBD465DF8047B704700BF38
:10050000002004E080B400AF054A054B5B6823F08F
:100510000203536000BFBD465DF8047B704700BF17
:10052000002004E080B400AF054A054B5B6843F04F
:100530000403536000BFBD465DF8047B704700BFF5
:10054000002004E080B400AF054A054B5B6823F04F
:100550000403536000BFBD465DF8047B704700BFD5
:10056000002004E080B400AF034B01221A6000BFFA
:10057000BD465DF8047B70470004274280B400AF9D
:10058000034B00221A6000BFBD465DF8047B704734
:100590000004274280B400AF034B1B681846BD46D9
:1005A0005DF8047B704700BF107AFF1F80B400AF76
:1005B000034B1B681846BD465DF8047B704700BFBF
:1005C000147AFF1F80B400AF034B1B681846BD466A
:1005D0005DF8047B704700BF187AFF1F80B485B0B8
:1005E00000AF78607B6803F00703FB600C4BDB68AF
:1005F000BB60BA684FF6FF031340BB60FB681A028A
:10060000BB68134343F0BF6343F40033BB60044A49
:10061000BB68D36000BF1437BD465DF8047B7047EC
:1006200000ED00E080B400AF044BDB681B0A03F070
:1006300007031846BD465DF8047B704700ED00E0F7
:1006400080B483B000AF0346FB7197F90730002BED
:100650000BDB094997F907305B09FA7902F01F02B1
:10066000012000FA02F241F8232000BF0C37BD46FA
:100670005DF8047B704700BF00E100E080B483B008
:1006800000AF0346FB7197F90730002B10DB0B49D5
:1006900097F907305B09FA7902F01F02012000FA8E
:1006A00002F2203341F82320BFF34F8FBFF36F8F47
:1006B00000BF0C37BD465DF8047B704700E100E0E9
:1006C00080B483B000AF0346FB7197F90730002B6D
:1006D0000EDB0B4A97F907305B09403352F82320B1
:1006E000FB7903F01F0322FA03F303F0010300E098
:1006F000002318460C37BD465DF8047B704700BFE9
:1007000000E100E080B483B000AF0346FB7197F9CD
:100710000730002B0CDB094997F907305B09FA79A0
:1007200002F01F02012000FA02F2403341F82320B8
:1007300000BF0C37BD465DF8047B704700E100E068
:1007400080B483B000AF0346FB7197F90730002BEC
:100750000CDB094997F907305B09FA7902F01F02AF
:10076000012000FA02F2603341F8232000BF0C3769
:10077000BD465DF8047B704700E100E080B483B0C3
:1007800000AF0346FB7197F90730002B0EDB0B4AD5
:1007900097F907305B09803352F82320FB7903F087
:1007A0001F0322FA03F303F0010300E000231846BD
:1007B0000C37BD465DF8047B704700BF00E100E0E8
:1007C00080B483B000AF03463960FB7197F90730FE
:1007D000002B0ADB0D4997F907303A68D2B21201B3
:1007E000D2B20B4483F800230AE00949FB7903F0F5
:1007F0000F03043B3A68D2B21201D2B20B441A760C
:1008000000BF0C37BD465DF8047B704700E100E097
:1008100000ED00E080B483B000AF0346FB7197F9B0
:100820000730002B09DB0D4A97F90730134493F882
:100830000033DBB21B09DBB209E0094AFB7903F0A4
:100840000F03043B13441B7EDBB21B09DBB21846CB
:100850000C37BD465DF8047B704700BF00E100E047
:1008600000ED00E080B489B000AFF860B9607A6054
:10087000FB6803F00703FB61FB69C3F10703042B6B
:1008800028BF0423BB61FB690433062B02D9FB6933
:10089000033B00E000237B610122BB6902FA03F302
:1008A0005A1EBB681A407B699A4001217B6901FA94
:1008B00003F3591E7B680B40134318462437BD468B
:1008C0005DF8047B704780B489B000AFF860B96010
:1008D0007A603B60BB6803F00703FB61FB69C3F10F
:1008E0000703042B28BF0423BB61FB690433062BD9
:1008F00002D9FB69033B00E000237B61FA687B6956
:10090000DA400121BB6901FA03F3013B1A407B681D
:100910001A6001227B6902FA03F35A1EFB681A402F
:100920003B681A6000BF2437BD465DF8047B704702
:1009300080B400AFBFF34F8F0549054BDB6803F46C
:10094000E062044B1343CB60BFF34F8F00BFFDE762
:1009500000ED00E00400FA0580B582B000AF7860D9
:100960007B68013BB3F1807F01D301230FE00A4A8A
:100970007B68013B53600F214FF0FF30FFF720FFF2
:10098000054B00229A60044B07221A600023184688
:100990000837BD4680BD00BF10E000E080B582B0E2
:1009A00000AF78607868FFF719FE00BF0837BD46D2
:1009B00080BD80B586B000AF0346B9607A60FB7336
:1009C00000237B61FFF72EFE78617A68B968786949
:1009D000FFF748FF024697F90F3011461846FFF718
:1009E000EFFE00BF1837BD4680BD80B582B000AFB6
:1009F0000346FB7197F907301846FFF721FE00BF49
:100A00000837BD4680BD80B582B000AF0346FB719C
:100A100097F907301846FFF731FE00BF0837BD468B
:100A200080BD80B500AFFFF783FF80B582B000AF17
:100A300078607868FFF790FF034618460837BD4690
:100A400080BD80B400AFBFF35F8F074A064B5B6A7F
:100A500023F480335362054B00225A6000BFBD4629
:100A60005DF8047B704700BF00ED00E090ED00E012
:100A700080B483B000AF78600A4A7B6843F001031A
:100A80005360094A084B5B6A43F480335362BFF3F7
:100A90004F8FBFF36F8F00BF0C37BD465DF8047BEF
:100AA000704700BF90ED00E000ED00E080B483B03F
:100AB00000AF78601E4A7B685B7893607B681B7828
:100AC000002B28D01A4A7B685B68D36018497B6882
:100AD0001B7B1A077B68DB7A1B061A437B689B7AB1
:100AE000DB041A437B685B7B9B041A437B689B7B1C
:100AF0005B041A437B68DB7B1B041A437B685B7ACD
:100B00001B021A437B681B7A5B0013437A681278D6
:100B100013430B6105E0064B0022DA60044B002210
:100B20001A6100BF0C37BD465DF8047B704700BFFB
:100B300090ED00E080B500AFFFF774FD0346184666
:100B400080BD80B584B000AFB9607A603B60034679
:100B5000FB7397F90F301846FFF75CFE3B687A6825
:100B6000B968FFF7B0FE00BF1037BD4680BD80B545
:100B700082B000AF0346FB7197F907301846FFF7C4
:100B8000C1FD00BF0837BD4680BD80B582B000AF53
:100B90000346FB7197F907301846FFF791FD0346AE
:100BA00018460837BD4680BD80B582B000AF034609
:100BB000FB7197F907301846FFF7C2FD00BF0837F1
:100BC000BD4680BD80B582B000AF0346FB7197F98A
:100BD00007301846FFF7D2FD034618460837BD46D2
:100BE00080BD80B483B000AF78607B68042B06D1F1
:100BF000094A094B1B6843F00403136005E0064AE9
:100C0000054B1B6823F00403136000BF0C37BD467F
:100C10005DF8047B704700BF10E000E080B500AFD6
:100C200000F002F800BF80BD80B400AF00BFBD4639
:100C30005DF8047B704700BF80B586B000AF786078
:100C400000237B61FFF784FB38617B68002B01D1B7
:100C5000012399E07B68002283F834207B6802221C
:100C600083F835207B681B687A681268126822F066
:100C700001021A600FE0FFF76BFB02463B69D31AD3
:100C8000052B08D97B6820225A657B68032283F8EC
:100C90003520032378E07B681B681B6803F00103A1
:100CA000002BE8D17B681B681B687B617A69384B35
:100CB00013407B617B685A687B689B681A437B683A
:100CC000DB681A437B681B691A437B685B691A43BC
:100CD0007B689B691A437B68DB691A437B681B6AE4
:100CE00013437A6913437B617B685B6A042B07D1EA
:100CF0007B68DA6A7B681B6B13437A6913437B61F9
:100D00007B681B687A691A607B681B685B697B611A
:100D10007B6923F007037B617B685B6A7A69134315
:100D20007B617B685B6A042B17D17B689B6A7A695D
:100D300013437B617B68DB6A002B0ED0786800F080
:100D400057FD0346002B08D07B6840225A657B681C
:100D5000012283F83520012316E07B681B687A693D
:100D60005A61786800F00EFD0346FB607B68DB6D1E
:100D70003F229A40FB689A607B6800225A657B6834
:100D8000012283F83520002318461837BD4680BD60
:100D90003F8010F080B584B000AF78607B68002B96
:100DA00001D1012350E07B6893F83530DBB2022B90
:100DB00001D1022348E07B681B687A6812681268D8
:100DC00022F001021A607B681B6800221A607B68AF
:100DD0001B6800225A607B681B6800229A607B684F
:100DE0001B680022DA607B681B6800221A617B683E
:100DF0001B6821225A61786800F0C4FC0346FB603E
:100E00007B680022DA637B6800221A647B68002218
:100E10005A647B6800229A647B680022DA647B68EB
:100E200000221A657B68DB6D3F229A40FB689A605E
:100E30007B6800225A657B68002283F835207B6836
:100E4000002283F83420002318461037BD4680BDA9
:100E500080B586B000AFF860B9607A603B6000236F
:100E6000FB75FB6893F83430012B01D1022326E097
:100E7000FB68012283F83420FB6893F83530DBB23D
:100E8000012B15D1FB68022283F83520FB68002274
:100E90005A653B687A68B968F86800F045FCFB68F9
:100EA0001B68FA681268126842F001021A6005E0D5
:100EB000FB68002283F834200223FB75FB7D184673
:100EC0001837BD4680BD80B586B000AFF860B96008
:100ED0007A603B600023FB75FB689B6D3B61FB68A0
:100EE00093F83430012B01D1022348E0FB68012242
:100EF00083F83420FB6893F83530DBB2012B37D10F
:100F0000FB68022283F83520FB6800225A653B68A3
:100F10007A68B968F86800F007FCFB68DB6D3F226F
:100F20009A403B699A60FB681B68FA68126812680D
:100F300042F016021A60FB681B68FA681268526970
:100F400042F080025A61FB681B6C002B07D0FB68E3
:100F50001B68FA681268126842F008021A60FB689F
:100F60001B68FA681268126842F001021A6005E014
:100F7000FB68002283F834200223FB75FB7D1846B2
:100F80001837BD4680BD80B584B000AF78607B68FF
:100F90009B6DFB60FFF7DCF9B8607B6893F8353038
:100FA000DBB2022B08D07B6880225A657B68002266
:100FB00083F83420012352E07B681B687A6812684A
:100FC000126822F016021A607B681B687A68126841
:100FD000526922F080025A617B681B6C002B03D19E
:100FE0007B689B6C002B07D07B681B687A68126853
:100FF000126822F008021A607B681B687A6812681F
:10100000126822F001021A6013E0FFF7A1F902460C
:10101000BB68D31A052B0CD97B6820225A657B68E4
:10102000002283F834207B68032283F835200323D1
:1010300015E07B681B681B6803F00103002BE4D1FB
:101040007B68DB6D3F229A40FB689A607B680022D8
:1010500083F834207B68012283F83520002318466A
:101060001037BD4680BD80B483B000AF78607B6828
:1010700093F83530DBB2022B04D07B6880225A65AE
:1010800001230CE07B68052283F835207B681B6810
:101090007A681268126822F001021A60002318466A
:1010A0000C37BD465DF8047B704780B58AB000AF51
:1010B000F8600B467A60FB720023FB77FFF748F974
:1010C000B861FB6893F83530DBB2022B08D0FB68BF
:1010D00080225A65FB68002283F834200123BFE098
:1010E000FB681B681B6803F48073002B05D0FB684A
:1010F0004FF480725A650123B2E0FB7A002B06D1CF
:10110000FB68DB6D202202FA03F37B6205E0FB68DB
:10111000DB6D102202FA03F37B62FB689B6D7B613F
:101120007B691B683B625AE07B68B3F1FF3F17D0D5
:101130007B68002B07D0FFF70BF90246BB69D21A78
:101140007B689A420CD9FB6820225A65FB68002212
:1011500083F83420FB68012283F8352003237FE0E5
:101160007B691B683B62FB68DB6D08229A403B6A27
:101170001340002B0BD0FB685B6D43F00102FB6852
:101180005A65FB68DB6D08229A407B699A60FB68B0
:10119000DB6D01229A403B6A1340002B0BD0FB68A9
:1011A0005B6D43F00202FB685A65FB68DB6D012250
:1011B0009A407B699A60FB68DB6D04229A403B6A27
:1011C0001340002B0BD0FB685B6D43F00402FB68FF
:1011D0005A65FB68DB6D04229A407B699A603A6A23
:1011E0007B6A1340002B05D1FB685B6D03F00103A4
:1011F000002B99D0FB685B6D002B18D0FB685B6DF2
:1012000003F00103002B12D0F868FFF7BCFEFB6867
:10121000DB6D30229A407B699A60FB68002283F87C
:101220003420FB68012283F83520012318E0FB7A83
:10123000002B0ED1FB68DB6D30229A407B699A60EF
:10124000FB68002283F83420FB68012283F83520F4
:1012500005E0FB68DB6D10229A407B699A60FB7F9A
:1012600018462837BD4680BD80B586B000AF78608F
:101270000023BB60924B1B68924AA2FB03239B0A8C
:101280007B617B689B6D3B613B691B68FB607B6896
:10129000DB6D08229A40FB681340002B1AD07B6854
:1012A0001B681B6803F00403002B13D07B681B68CA
:1012B0007A681268126822F004021A607B68DB6D9B
:1012C00008229A403B699A607B685B6D43F001029B
:1012D0007B685A657B68DB6D01229A40FB6813408E
:1012E000002B12D07B681B685B6903F08003002B26
:1012F0000BD07B68DB6D01229A403B699A607B686A
:101300005B6D43F002027B685A657B68DB6D0422EB
:101310009A40FB681340002B12D07B681B681B6847
:1013200003F00203002B0BD07B68DB6D04229A4094
:101330003B699A607B685B6D43F004027B685A6589
:101340007B68DB6D10229A40FB681340002B43D072
:101350007B681B681B6803F00803002B3CD07B688C
:10136000DB6D10229A403B699A607B681B681B68A2
:1013700003F48023002B18D07B681B681B6803F4E0
:101380000023002B08D17B681B6C002B24D07B68CA
:101390001B6C786898471FE07B689B6C002B1BD008
:1013A0007B689B6C7868984716E07B681B681B68B5
:1013B00003F48073002B07D17B681B687A6812687E
:1013C000126822F008021A607B681B6C002B03D0A5
:1013D0007B681B6C786898477B68DB6D20229A409D
:1013E000FB681340002B00F08E807B681B681B6835
:1013F00003F01003002B00F086807B68DB6D202259
:101400009A403B699A607B6893F83530DBB2052BD4
:1014100036D17B681B687A681268126822F016025F
:101420001A607B681B687A681268526922F0800231
:101430005A617B681B6C002B03D17B689B6C002B73
:1014400007D07B681B687A681268126822F008026D
:101450001A607B68DB6D3F229A403B699A607B682B
:10146000002283F834207B68012283F835207B68D2
:101470001B6D002B7DD07B681B6D7868984778E0EA
:101480007B681B681B6803F48023002B1CD07B68DF
:101490001B681B6803F40023002B08D17B685B6C7E
:1014A000002B30D07B685B6C786898472BE07B68BA
:1014B000DB6B002B27D07B68DB6B7868984722E0DA
:1014C0000C000020B5814E1B7B681B681B6803F471
:1014D0008073002B0FD17B681B687A6812681268D2
:1014E00022F010021A607B68002283F834207B68A7
:1014F000012283F835207B68DB6B002B03D07B68EF
:10150000DB6B786898477B685B6D002B32D07B681B
:101510005B6D03F00103002B22D07B68052283F86A
:1015200035207B681B687A681268126822F0010215
:101530001A60BB680133BB607A69934207D87B6845
:101540001B681B6803F00103002BF2D100E000BF11
:101550007B68002283F834207B68012283F83520E1
:101560007B68DB6C002B05D07B68DB6C7868984768
:1015700000E000BF1837BD4680BD80B487B000AF23
:10158000F8600B467A60FB720023FB75FB6893F8EA
:101590003430012B01D102233DE0FB68012283F8A6
:1015A0003420FB6893F83530DBB2012B2AD1FB7A6B
:1015B000052B2AD801A252F823F000BFD515000848
:1015C000DD150008E5150008ED150008F515000803
:1015D000FD150008FB687A68DA6317E0FB687A6833
:1015E0001A6413E0FB687A685A640FE0FB687A6853
:1015F0009A640BE0FB687A68DA6407E0FB687A6853
:101600001A6503E00123FB7500E000BFFB680022C0
:1016100083F83420FB7D18461C37BD465DF8047BFB
:10162000704780B485B000AF78600B46FB70002334
:10163000FB737B6893F83430012B01D1022353E014
:101640007B68012283F834207B6893F83530DBB265
:10165000012B42D1FB78062B3BD801A252F823F094
:101660007D160008851600088D16000895160008DE
:101670009D160008A5160008AD1600087B6800221C
:10168000DA632CE07B6800221A6428E07B68002281
:101690005A6424E07B6800229A6420E07B68002280
:1016A000DA641CE07B6800221A6518E07B6800227F
:1016B000DA637B6800221A647B6800225A647B68C4
:1016C00000229A647B680022DA647B6800221A6533
:1016D00005E00123FB7300BF01E00123FB737B687E
:1016E000002283F83420FB7B18461437BD465DF892
:1016F000047B704780B483B000AF78607B6893F858
:101700003530DBB218460C37BD465DF8047B7047B8
:1017100080B483B000AF78607B685B6D18460C378F
:10172000BD465DF8047B704780B485B000AFF860BB
:10173000B9607A603B60FB681B68FA6812681268DF
:1017400022F480221A60FB681B683A685A60FB68C2
:101750009B68402B08D1FB681B687A689A60FB681D
:101760001B68BA68DA6007E0FB681B68BA689A60B1
:10177000FB681B687A68DA6000BF1437BD465DF805
:10178000047B704780B485B000AF78607B681B68CD
:10179000DBB2103B144AA2FB03231B09FB60134A74
:1017A000FB6813441B781A467B68DA65FB68032BD9
:1017B00009D97B681B6823F47F7323F003031A1D88
:1017C0007B689A6507E07B681B6823F47F7323F0CE
:1017D00003037A6893657B689B6D18461437BD4692
:1017E0005DF8047B704700BFABAAAAAA244A01088F
:1017F00080B485B000AF78600023FB737B689B6A80
:10180000BB607B689B69002B1FD1BB68032B55D83D
:1018100001A252F823F000BF291800083B18000865
:1018200029180008BD1800087B68DB6A03F0807384
:10183000002B45D00123FB7342E07B68DB6AB3F1E8
:10184000C07F3FD10123FB733CE07B689B69B3F50C
:10185000005F21D1BB68032B36D801A252F823F0D8
:101860007118000877180008711800088918000816
:101870000123FB732FE07B68DB6A03F08073002B8E
:1018800024D00123FB7321E07B68DB6AB3F1C07FC6
:101890001ED10123FB731BE0BB68022B02D9032B73
:1018A00003D018E00123FB7315E07B68DB6A03F0CB
:1018B0008073002B0ED00123FB730BE000BF0AE006
:1018C00000BF08E000BF06E000BF04E000BF02E088
:1018D00000BF00E000BFFB7B18461437BD465DF833
:1018E000047B704780B489B000AF78603960002312
:1018F0007B6100233B610023BB610023FB6165E149
:101900000122FB6902FA03F37B613B681A687B6979
:1019100013403B613A697B699A4240F054813B68CD
:101920005B68022B03D03B685B68122B23D1FB69F9
:10193000DA087B68083253F82230BB61FB6903F098
:1019400007039B000F2202FA03F3DB43BA6913403B
:10195000BB613B681A69FB6903F007039B0002FA4D
:1019600003F3BA691343BB61FB69DA087B68083289
:10197000B96943F822107B681B68BB61FB695B0097
:10198000032202FA03F3DB43BA691340BB613B68ED
:101990005B6803F00302FB695B0002FA03F3BA69B8
:1019A0001343BB617B68BA691A603B685B68012BB3
:1019B0000BD03B685B68022B07D03B685B68112B40
:1019C00003D03B685B68122B30D17B689B68BB619E
:1019D000FB695B00032202FA03F3DB43BA6913409D
:1019E000BB613B68DA68FB695B0002FA03F3BA6922
:1019F0001343BB617B68BA699A607B685B68BB61B3
:101A00000122FB6902FA03F3DB43BA691340BB61AD
:101A10003B685B681B0903F00102FB6902FA03F3F0
:101A2000BA691343BB617B68BA695A607B68DB683B
:101A3000BB61FB695B00032202FA03F3DB43BA6973
:101A40001340BB613B689A68FB695B0002FA03F3D1
:101A5000BA691343BB617B68BA69DA603B685B684B
:101A600003F08053002B00F0AE800023FB605C4A43
:101A70005B4B5B6C43F480435364594B5B6C03F4E6
:101A80008043FB60FB68574AFB699B08023352F8AE
:101A90002330BB61FB6903F003039B000F2202FAB2
:101AA00003F3DB43BA691340BB617B684E4A934240
:101AB00025D07B684D4A93421FD07B684C4A9342A5
:101AC00019D07B684B4A934213D07B684A4A9342B1
:101AD0000DD07B68494A934207D07B68484A9342BD
:101AE00001D106230CE007230AE0052308E00423C4
:101AF00006E0032304E0022302E0012300E00023C8
:101B0000FA6902F0030292009340BA691343BB6181
:101B10003449FB699B080233BA6941F82320394BE9
:101B20001B68BB613B69DB43BA691340BB613B681F
:101B30005B6803F48033002B03D0BA693B6913431D
:101B4000BB61304ABB6913602E4B5B68BB613B696C
:101B5000DB43BA691340BB613B685B6803F4003345
:101B6000002B03D0BA693B691343BB61254ABB69AB
:101B70005360244B9B68BB613B69DB43BA691340EC
:101B8000BB613B685B6803F48013002B03D0BA6928
:101B90003B691343BB611B4ABB699360194BDB680C
:101BA000BB613B69DB43BA691340BB613B685B685F
:101BB00003F40013002B03D0BA693B691343BB61E4
:101BC000104ABB69D360FB690133FB61FB690F2BD2
:101BD0007FF696AE00BF2437BD465DF8047B7047A4
:101BE000003802400038014000000240000402407A
:101BF00000080240000C02400010024000140240A5
:101C000000180240003C014080B487B000AF78600B
:101C1000396000233B610023FB600023BB6000238D
:101C20007B61C8E001227B6902FA03F33B613A68F9
:101C30003B691340FB60FA683B699A4240F0B88008
:101C4000624A7B699B08023352F82330BB607B6990
:101C500003F003039B000F2202FA03F3BA68134058
:101C6000BB607B685A4A934225D07B68594A9342AD
:101C70001FD07B68584A934219D07B68574A9342D9
:101C800013D07B68564A93420DD07B68554A9342E5
:101C900007D07B68544A934201D106230CE0072306
:101CA0000AE0052308E0042306E0032304E00223FE
:101CB00002E0012300E000237A6902F003029200AF
:101CC00003FA02F2BB689A4232D17B6903F0030344
:101CD0009B000F2202FA03F3BB603C487B699B0820
:101CE0003A497A699208023251F82210BA68D2430E
:101CF0000A40023340F823203C493C4B1A68FB68F9
:101D0000DB4313400B603949384B5A68FB68DB43AF
:101D100013404B603549354B9A68FB68DB431340F1
:101D20008B603249314BDA68FB68DB431340CB6090
:101D30007B681A687B695B00032101FA03F3DB43CC
:101D40001A407B681A607B69DA087B69D9087B686E
:101D5000083153F821107B6903F007039B000F2023
:101D600000FA03F3DB4319407B68083243F8221082
:101D70007B689A687B695B00032101FA03F3DB430C
:101D80001A407B689A607B685A6801217B6901FA76
:101D900003F3DB431A407B685A607B68DA687B692F
:101DA0005B00032101FA03F3DB431A407B68DA602E
:101DB0007B6901337B617B690F2B7FF633AF00BFFB
:101DC0001C37BD465DF8047B704700BF00380140FA
:101DD000000002400004024000080240000C0240E3
:101DE000001002400014024000180240003C014074
:101DF00080B485B000AF78600B467B807B681A6941
:101E00007B881340002B02D00123FB7301E00023E9
:101E1000FB73FB7B18461437BD465DF8047B7047A7
:101E200080B483B000AF78600B467B8013467B7034
:101E30007B78002B03D07A887B689A6103E07B88EB
:101E40001A047B689A6100BF0C37BD465DF8047BBD
:101E5000704780B483B000AF78600B467B807B68AE
:101E60005A697B881A407B889A4204D17B881A047D
:101E70007B689A6102E07A887B689A6100BF0C37C0
:101E8000BD465DF8047B704780B485B000AF7860D4
:101E90000B467B804FF48033FB607A88FB681343EA
:101EA000FB60FA687B68DA617A887B68DA61FA68D5
:101EB0007B68DA617B68DB69FB607B68DB6903F464
:101EC0008033002B01D0002300E001231846143793
:101ED000BD465DF8047B704780B582B000AF034615
:101EE000FB80084B5A69FB881340002B06D0054A3B
:101EF000FB885361FB8818460FF0C8FE00BF083707
:101F0000BD4680BD003C014080B483B000AF0346B5
:101F1000FB8000BF0C37BD465DF8047B704700BFF7
:101F200080B400AF00231846BD465DF8047B7047BF
:101F300080B586B000AF78607B68002B01D10123AB
:101F40002DE27B681B6803F00103002B75D0A34BC7
:101F50009B6803F00C03042B0CD0A04B9B6803F090
:101F60000C03082B12D19D4B5B6803F48003B3F57F
:101F7000800F0BD1994B1B6803F40033002B5BD00F
:101F80007B685B68002B57D1012308E27B685B68A4
:101F9000B3F5803F06D1914A904B1B6843F48033E0
:101FA00013601DE07B685B68B3F5A02F0CD18B4AF2
:101FB0008A4B1B6843F480231360884A874B1B6855
:101FC00043F4803313600BE0844A844B1B6823F492
:101FD00080331360814A814B1B6823F48023136094
:101FE0007B685B68002B13D0FEF7B2F9386108E01C
:101FF000FEF7AEF902463B69D31A642B01D90323DD
:10200000CDE1764B1B6803F40033002BF0D014E0D5
:10201000FEF79EF9386108E0FEF79AF902463B693F
:10202000D31A642B01D90323B9E16C4B1B6803F469
:102030000033002BF0D100E000BF7B681B6803F089
:102040000203002B63D0654B9B6803F00C03002B4D
:102050000BD0624B9B6803F00C03082B1CD15F4B29
:102060005B6803F48003002B16D15C4B1B6803F004
:102070000203002B05D07B68DB68012B01D0012314
:102080008DE15649554B1B6823F0F8027B681B69AC
:10209000DB0013430B603AE07B68DB68002B20D049
:1020A0004F4B01221A60FEF753F9386108E0FEF742
:1020B0004FF902463B69D31A022B01D903236EE183
:1020C000464B1B6803F00203002BF0D04349434BFF
:1020D0001B6823F0F8027B681B69DB0013430B606D
:1020E00015E03F4B00221A60FEF732F9386108E034
:1020F000FEF72EF902463B69D31A022B01D90323BE
:102100004DE1364B1B6803F00203002BF0D17B68D6
:102110001B6803F00803002B30D07B685B69002B41
:1021200016D0304B01221A60FEF712F9386108E030
:10213000FEF70EF902463B69D31A022B01D903239D
:102140002DE1264B5B6F03F00203002BF0D015E06E
:10215000244B00221A60FEF7FBF8386108E0FEF716
:10216000F7F802463B69D31A022B01D9032316E183
:102170001A4B5B6F03F00203002BF0D17B681B68E6
:1021800003F00403002B00F0A0800023FB75134B29
:102190001B6C03F08053002B0FD10023FB600F4A10
:1021A0000E4B1B6C43F0805313640C4B1B6C03F001
:1021B0008053FB60FB680123FB750B4B1B6803F42A
:1021C0008073002B21D1084A074B1B6843F48073AE
:1021D0001360FEF7BDF8386111E000BF003802401F
:1021E00000004742800E474200700040FEF7B0F802
:1021F00002463B69D31A022B01D90323CFE06A4B75
:102200001B6803F48073002BF0D07B689B68012B64
:1022100006D1664A654B1B6F43F0010313671CE050
:102220007B689B68052B0CD1604A604B1B6F43F0A9
:10223000040313675D4A5D4B1B6F43F00103136793
:102240000BE05A4A594B1B6F23F001031367574A9F
:10225000564B1B6F23F0040313677B689B68002BAE
:1022600015D0FEF775F838610AE0FEF771F80246FE
:102270003B69D31A41F28832934201D903238EE09D
:102280004A4B1B6F03F00203002BEED014E0FEF765
:102290005FF838610AE0FEF75BF802463B69D31A43
:1022A00041F28832934201D9032378E03F4B1B6F00
:1022B00003F00203002BEED1FB7D012B05D13B4A3D
:1022C0003A4B1B6C23F0805313647B689B69002B93
:1022D00064D0364B9B6803F00C03082B5CD07B6802
:1022E0009B69022B41D1324B00221A60FEF730F875
:1022F000386108E0FEF72CF802463B69D31A022B3E
:1023000001D903234BE0294B1B6803F00073002B1A
:10231000F0D126497B68DA697B681B6A1A437B68BF
:102320005B6A9B011A437B689B6A5B08013B1B0449
:102330001A437B68DB6A1B0613434B601C4B01226C
:102340001A60FEF705F8386108E0FEF701F802466A
:102350003B69D31A022B01D9032320E0134B1B68DE
:1023600003F00073002BF0D018E0114B00221A602C
:10237000FDF7EEFF386108E0FDF7EAFF02463B6932
:10238000D31A022B01D9032309E0084B1B6803F081
:102390000073002BF0D101E0012300E00023184678
:1023A0001837BD4680BD00BF0070004000380240B5
:1023B0006000474280B584B000AF786039607B68C8
:1023C000002B01D10123CAE0674B1B6803F00F0209
:1023D0003B689A420CD2644B3A68D2B21A70624B94
:1023E0001B6803F00F023B689A4201D00123B6E05C
:1023F0007B681B6803F00203002B20D07B681B68FE
:1024000003F00403002B05D0584A584B9B6843F453
:10241000E05393607B681B6803F00803002B05D032
:10242000524A524B9B6843F4604393604F494F4B71
:102430009B6823F0F0027B689B6813438B607B688A
:102440001B6803F00103002B44D07B685B68012B01
:1024500007D1464B1B6803F40033002B19D101232D
:102460007DE07B685B68022B03D07B685B68032B95
:1024700007D13E4B1B6803F00073002B09D10123E9
:102480006DE03A4B1B6803F00203002B01D10123DE
:1024900065E03649354B9B6823F003027B685B6837
:1024A00013438B60FDF754FFF8600AE0FDF750FF1F
:1024B0000246FB68D31A41F28832934201D90323C2
:1024C0004DE02A4B9B6803F00C027B685B689B0025
:1024D0009A42EBD1244B1B6803F00F023B689A42EF
:1024E0000CD9214B3A68D2B21A701F4B1B6803F00B
:1024F0000F023B689A4201D0012330E07B681B68E1
:1025000003F00403002B08D01849184B9B6823F4F0
:10251000E0527B68DB6813438B607B681B6803F0C9
:102520000803002B09D01149104B9B6823F460422B
:102530007B681B69DB0013438B6001F079F901466E
:102540000A4B9B681B0903F00F03094AD35C21FA6D
:1025500003F3084A1360002010F036FF00231846EA
:102560001037BD4680BD00BF003C0240003802402D
:10257000AC5301080C00002080B58CB000AFF860AF
:10258000B9607A60FB68002B29D10023BB612B4A1C
:102590002A4B1B6B43F001031363284B1B6B03F0A7
:1025A0000103BB61BB694FF48073FB6102233B6293
:1025B0000323BB6200237B620023FB6207F11C0341
:1025C00019461F48FFF78EF91C481C4B9B6823F0E7
:1025D000EC62B9687B680B431343836029E00023F6
:1025E0007B61164A154B1B6B43F004031363134BBB
:1025F0001B6B03F004037B617B694FF40073FB6189
:1026000002233B620323BB6200237B620023FB6245
:1026100007F11C0319460B48FFF764F90748074BFD
:102620009B6823F078427B68D900BB680B43134357
:10263000836000BF3037BD4680BD00BF0038024018
:10264000000002400008024080B400AF034B0122AA
:102650001A6000BFBD465DF8047B70474C004742DE
:1026600080B400AF034B00221A6000BFBD465DF886
:10267000047B70474C0047422DE9F04F87B000AF14
:102680000022FA6000227A610022BA6000223A61D8
:10269000514A926802F00C02042A07D0082A08D096
:1026A000002A40F090804D4B3B618FE04C4B3B61EA
:1026B0008CE0494A526802F03F02FA60464A52688A
:1026C00002F48002002A23D0434B5B689B094FF041
:1026D000000440F2FF114FF0000203EA010304EA94
:1026E00002043F4A02FB04F1002202FB03F20A4407
:1026F0003B49A3FB010153181946FB684FF0000446
:102700001A46234611F05AFF03460C467B614CE003
:10271000314A5268920911464FF0000240F2FF150B
:102720004FF0000605EA010506EA02062946324690
:102730004FEA421B4BEAD16B4FEA411A51465A46C7
:10274000AA46B34655465E464D1B62EB0606294631
:102750003246940144EA91648B015B1A64EB0204F3
:102760004FEAC40949EA53794FEAC30843464C4645
:1027700055465E46ED1846EB04062B463446A2024B
:102780007A607A6842EA93527A609B023B6097E8EB
:10279000180018462146FB684FF000041A462346ED
:1027A00011F00CFF03460C467B610B4B5B681B0C66
:1027B00003F0030301335B00BB607A69BB68B2FBC3
:1027C000F3F33B6102E0054B3B6100BF3B691846F8
:1027D0001C37BD46BDE8F08F003802400024F400ED
:1027E00040787D0180B400AF034B1B681846BD469E
:1027F0005DF8047B704700BF0C00002080B500AF7F
:10280000FFF7F0FF0146054B9B689B0A03F00703A7
:10281000034AD35C21FA03F3184680BD0038024016
:10282000BC53010880B500AFFFF7DCFF0146054B44
:102830009B685B0B03F00703034AD35C21FA03F3A5
:10284000184680BD00380240BC53010880B483B0F4
:1028500000AF78607B680F221A60454B1B6803F459
:102860008023B3F5802F04D17B684FF4A0225A60F7
:102870000EE03F4B1B6803F48033B3F5803F04D177
:102880007B684FF480325A6002E07B6800225A6015
:10289000374B1B6803F00103012B03D17B68012236
:1028A000DA6002E07B680022DA60314B1B68DB08EB
:1028B00003F01F027B681A612D4B1B6F03F00403AA
:1028C000042B03D17B6805229A600CE0284B1B6F18
:1028D00003F00103012B03D17B6801229A6002E01F
:1028E0007B6800229A60224B5B6F03F00103012B8F
:1028F00003D17B6801225A6102E07B6800225A61A1
:102900001B4B1B6803F08073B3F1807F03D17B689E
:1029100002229A6102E07B6801229A61144B5B6893
:1029200003F480027B68DA61114B5B6803F03F02BD
:102930007B681A620E4B5B689B09C3F308027B68D5
:102940005A620B4B5B6803F4403303F580335B0042
:102950001A0C7B689A62064B5B681B0E03F00F0231
:102960007B68DA6200BF0C37BD465DF8047B7047B8
:102970000038024080B483B000AF786039607B6873
:102980000F221A60124B9B6803F003027B685A60A7
:102990000F4B9B6803F0F0027B689A600C4B9B68BE
:1029A00003F4E0527B68DA60094B9B68DB0803F4B0
:1029B000E0527B681A61074B1B6803F00F023B680B
:1029C0001A6000BF0C37BD465DF8047B704700BF3E
:1029D00000380240003C024080B500AF064BDB6887
:1029E00003F08003802B04D100F00AF8034B80220F
:1029F0001A7000BF80BD00BF003802400E38024090
:102A000080B400AF00BFBD465DF8047B704700BFD7
:102A100080B58CB000AF786000237B6200233B62FE
:102A20000023FB610023BB6100237B6100233B612A
:102A30000023FB600023FB620023BB627B681B68F2
:102A400003F00103002B10D06F496F4BD3F88C308B
:102A500023F0C0627B689B6B1343C1F88C307B68AA
:102A60009B6B002B01D10123FB627B681B6803F089
:102A70000203002B10D06449634BD3F88C3023F051
:102A8000C0527B68DB6B1343C1F88C307B68DB6B17
:102A9000002B01D10123FB627B681B6803F0040358
:102AA000002B17D05849584BD3F88C3023F44012E0
:102AB0007B681B6B1343C1F88C307B681B6BB3F5D1
:102AC000801F01D10123FB627B681B6B002B01D1AE
:102AD0000123BB627B681B6803F00803002B17D03F
:102AE0004949494BD3F88C3023F440027B685B6B37
:102AF0001343C1F88C307B685B6BB3F5800F01D159
:102B00000123FB627B685B6B002B01D10123BB625D
:102B10007B681B6803F02003002B00F08A800023F1
:102B2000BB60394A384B1B6C43F080531364364BFF
:102B30001B6C03F08053BB60BB68344A334B1B688B
:102B400043F480731360FDF703FC786208E0FDF73F
:102B5000FFFB02467B6AD31A022B01D9032378E2DA
:102B60002A4B1B6803F48073002BF0D0264B1B6F9D
:102B700003F440733B623B6A002B2FD07B681B6CD5
:102B800003F440723B6A9A4228D01F4B1B6F23F418
:102B900040733B621E4B01221A601D4B00221A60DB
:102BA000194A3B6A1367184B1B6F03F00103012B93
:102BB00014D1FDF7CDFB78620AE0FDF7C9FB0246B0
:102BC0007B6AD31A41F28832934201D9032340E24F
:102BD0000D4B1B6F03F00203002BEED07B681B6CC8
:102BE00003F44073B3F5407F14D10749064B9B684B
:102BF00023F4F8127B681B6C23F0704323F44073BA
:102C000013438B600CE000BF0038024000700040AE
:102C1000400E47424A4A4A4B9B6823F4F81393609C
:102C20004749474B1A6F7B681B6CC3F30B03134375
:102C30000B677B681B6803F01003002B04D0414A2C
:102C40007B6893F8583013607B681B6803F080033F
:102C5000002B0AD03A493A4BD3F8943023F440027F
:102C60007B68DB6C1343C1F894307B681B6803F00E
:102C70004003002B0AD03249314BD3F8943023F073
:102C800080627B689B6C1343C1F894307B681B683F
:102C900003F48073002B11D02949294BD3F89430C9
:102CA00023F000627B685B6D1343C1F894307B684E
:102CB0005B6DB3F1006F01D10123BB627B681B68C0
:102CC00003F40073002B0AD01D491D4BD3F8943038
:102CD00023F080527B685B6C1343C1F894307B68AF
:102CE0001B6803F48063002B11D01549144BD3F8F3
:102CF000943023F000527B681B6D1343C1F894306D
:102D00007B681B6DB3F1005F01D10123FB62FB6A9D
:102D1000012B05D07B681B68B3F5006F40F0FF8086
:102D2000094B00221A60FDF713FB78620EE0FDF7F5
:102D30000FFB02467B6AD31A022B07D9032388E1D3
:102D400000380240E0114742680047427E4B1B6852
:102D500003F00063002BEAD17B681B6803F00103DA
:102D6000002B03D07B689B6B002B09D07B681B6812
:102D700003F00203002B28D07B68DB6B002B24D1EF
:102D8000714BD3F884301B0C03F0030301335B0059
:102D9000FB616D4BD3F884301B0E03F00F03BB6156
:102DA00069497B685A687B689B689B011A43FB6989
:102DB0005B08013B1B041A43BB691B061A437B6873
:102DC0005B691B071343C1F884307B681B6803F001
:102DD0000403002B04D07B681B6BB3F5801F0AD063
:102DE0007B681B6803F00803002B35D07B685B6BA6
:102DF000B3F5800F30D1544BD3F884301B0C03F063
:102E0000030301335B00FB614F4BD3F884301B0F8E
:102E100003F007037B614C497B685A687B689B68B9
:102E20009B011A43FB695B08013B1B041A437B6847
:102E30001B691B061A437B691B071343C1F88430C7
:102E40004149414BD3F88C3023F01F027B689B6AC9
:102E5000013B1343C1F88C307B681B6803F480632B
:102E6000002B29D07B681B6DB3F1005F24D1364B5A
:102E7000D3F884301B0C03F0030301335B00BB6108
:102E8000314BD3F884301B0F03F007037B612E49CD
:102E90007B685A687B689B689B011A437B68DB6888
:102EA0005B08013B1B041A43BB691B061A437B6981
:102EB0001B071343C1F884307B681B6803F400636D
:102EC000002B16D020497B685A687B689B689B0161
:102ED0001A437B68DB685B08013B1B041A437B6871
:102EE0001B691B061A437B685B691B071343C1F808
:102EF0008430164B01221A60FDF72AFA786208E046
:102F0000FDF726FA02467B6AD31A022B01D9032366
:102F10009FE00D4B1B6803F00063002BF0D0BB6AF1
:102F2000012B40F095800A4B00221A60FDF710FA41
:102F300078620FE0FDF70CFA02467B6AD31A022B87
:102F400008D9032385E000BF0038024068004742EB
:102F500070004742414B1B6803F00053B3F1005F20
:102F6000E8D07B681B6803F00403002B03D07B6868
:102F70001B6B002B09D07B681B6803F00803002B38
:102F80002BD07B685B6B002B27D1344BD3F8883078
:102F90001B0C03F0030301335B003B612F497B688B
:102FA0009A697B68DB699B011A433B695B08013BBB
:102FB0001B041A437B685B6A1B061343C1F8883005
:102FC0002649264BD3F88C3023F4F8527B68DB6A11
:102FD000013B1B021343C1F88C307B681B6803F470
:102FE0008073002B1DD07B685B6DB3F1006F18D12F
:102FF0001A4BD3F888301B0E03F00F03FB60174900
:103000007B689A697B68DB699B011A437B681B6A52
:103010005B08013B1B041A43FB681B061343C1F802
:1030200088300F4B01221A60FDF792F9786208E0B0
:10303000FDF78EF902467B6AD31A022B01D90323CE
:1030400007E0064B1B6803F00053B3F1005FEFD1BC
:10305000002318463037BD4680BD00BF003802400F
:103060007000474280B485B000AF78607B6840F262
:10307000FF721A605D4BD3F8843003F03F027B6827
:103080005A605A4BD3F884309B09C3F308027B681B
:103090009A60564BD3F884301B0C03F003030133C2
:1030A0005A007B68DA60514BD3F884301B0E03F072
:1030B0000F027B681A614D4BD3F884301B0F03F06D
:1030C00007027B685A61494BD3F8883003F03F020E
:1030D0007B689A61454BD3F888309B09C3F308029B
:1030E0007B68DA61414BD3F888301B0C03F0030393
:1030F00001335A007B681A623C4BD3F888301B0EB0
:1031000003F00F027B685A62384BD3F88C3003F01F
:103110001F027B689A62354BD3F88C301B0A03F090
:103120001F027B68DA62314BD3F88C3003F4401213
:103130007B681A632D4BD3F88C3003F440027B6814
:103140005A632A4BD3F88C3003F0C0627B689A63D1
:10315000264BD3F88C3003F0C0527B68DA63234BE4
:103160009B6803F4F813FB60204B1B6F03F4407261
:10317000FB681A437B681A641C4BD3F8943003F045
:1031800080627B689A64194BD3F8943003F4400250
:103190007B68DA64154BD3F8943003F000627B68E7
:1031A0005A65124BD3F8943003F080527B685A640E
:1031B0000E4BD3F8943003F000527B681A650B4B2A
:1031C000D3F88C3003F08073002B04D17B6800228D
:1031D00083F8582003E07B68012283F8582000BF61
:1031E0001437BD465DF8047B704700BF00380240CD
:1031F00080B489B000AF786000237B610023FB615D
:103200000023BB6100233B610023FB600023BB6004
:103210007B68013B072B00F2FA8101A252F823F0F0
:10322000E9330008053500080F3600084132000870
:103230000F3600080F3600080F360008413200082C
:10324000AC4BD3F88C303B613B6903F470033B61BA
:103250003B69B3F5401F00F0B780B3F5401F09D8B4
:10326000B3F5801F4CD0B3F5001F00F08380002B16
:103270000BD0B8E0B3F5000F7CD0B3F5400F00F0F1
:10328000A680B3F5800F3BD0ADE09A4B5B6803F4AA
:103290008003002B09D1974BD3F8883003F03F030C
:1032A000954AB2FBF3F3BB6108E0924BD3F8883048
:1032B00003F03F03914AB2FBF3F3BB618D4BD3F8AC
:1032C00088301B0E03F00F037B618A4BD3F88830E4
:1032D0009B09C3F30803BA6902FB03F27B69B2FBE3
:1032E000F3F3FB61834BD3F88C301B0A03F01F030D
:1032F00001337B61FA697B69B2FBF3F3FB6172E036
:103300007C4B5B6803F48003002B09D1794BD3F825
:10331000843003F03F03784AB2FBF3F3BB6108E06B
:10332000744BD3F8843003F03F03744AB2FBF3F3D9
:10333000BB61704BD3F884301B0E03F00F037B612D
:103340006C4BD3F884309B09C3F30803BA6902FBC2
:1033500003F27B69B2FBF3F3FB61664BD3F88C306D
:1033600003F01F0301337B61FA697B69B2FBF3F35E
:10337000FB6138E05F4B5B6803F48003002B08D1EE
:103380005C4B5B6803F03F035B4AB2FBF3F3BB614A
:1033900007E0584B5B6803F03F03584AB2FBF3F376
:1033A000BB61544B5B681B0F03F007037B61514B00
:1033B0005B689B09C3F30803BA6902FB03F27B69EC
:1033C000B2FBF3F3FB610EE04D4BFB610BE0494BAD
:1033D0005B6803F48003002B02D1474BFB6101E0E3
:1033E000464BFB6100BF12E1424BD3F88C3003F037
:1033F000C063FB60FB68B3F1007F0CD0B3F1007FCA
:1034000002D8002B0AD070E0B3F1806F35D0B3F151
:10341000C06F5DD069E03A4BFB6169E0354B5B689A
:1034200003F48003B3F5800F09D1324BD3F8843015
:1034300003F03F03314AB2FBF3F3BB6108E02D4BCD
:10344000D3F8843003F03F032B4AB2FBF3F3BB61A4
:10345000284BD3F884309B09C3F30803BA6902FBF5
:1034600003F3BB60234BD3F884301B0F03F0070337
:10347000BA68B2FBF3F3FB613AE01E4B5B6803F4FE
:103480008003B3F5800F08D11A4B5B6803F03F034C
:103490001A4AB2FBF3F3BB6107E0164B5B6803F01B
:1034A0003F03154AB2FBF3F3BB61124B5B689B0908
:1034B000C3F30803BA6902FB03F3BB600D4B5B68FF
:1034C0001B0F03F00703BA68B2FBF3F3FB610FE0D5
:1034D000084B5B6803F48003B3F5800F02D1074B00
:1034E000FB6105E0044BFB6102E00023FB6100BFD0
:1034F0008DE000BF003802400024F40040787D01D8
:103500000080BB00454BD3F88C3003F0C053FB6008
:10351000FB68B3F1006F0CD0B3F1006F02D8002B41
:103520000AD070E0B3F1805F35D0B3F1C05F5DD0F9
:1035300069E03B4BFB6169E0384B5B6803F4800357
:10354000B3F5800F09D1354BD3F8843003F03F0336
:10355000344AB2FBF3F3BB6108E0304BD3F884305C
:1035600003F03F03304AB2FBF3F3BB612B4BD3F8BC
:1035700084309B09C3F30803BA6902FB03F3BB6001
:10358000264BD3F884301B0F03F00703BA68B2FB55
:10359000F3F3FB613AE0214B5B6803F48003B3F57E
:1035A000800F08D11D4B5B6803F03F031D4AB2FB3F
:1035B000F3F3BB6107E0194B5B6803F03F031A4A62
:1035C000B2FBF3F3BB61154B5B689B09C3F30803C4
:1035D000BA6902FB03F3BB60104B5B681B0F03F07F
:1035E0000703BA68B2FBF3F3FB610FE00B4B5B68B8
:1035F00003F48003B3F5800F02D10A4BFB6105E0B1
:10360000094BFB6102E00023FB6100BF00BFFB69C7
:1036100018462437BD465DF8047B704700380240E9
:103620000080BB0040787D010024F40080B483B0AA
:1036300000AF0346FB71FB79012B06D1094A094B08
:103640001B6F43F00803136705E0064A054B1B6F29
:1036500023F00803136700BF0C37BD465DF8047BF9
:10366000704700BF0038024080B584B000AF78607A
:10367000234B00221A60FCF76BFEF86008E0FCF7B1
:1036800067FE0246FB68D31A022B01D9032333E0FD
:103690001C4B1B6803F00063002BF0D119497B68B9
:1036A0001A687B685B689B011A437B689B685B08B0
:1036B000013B1B041A437B68DB681B061A437B68CB
:1036C0001B691B071343C1F884300D4B01221A609C
:1036D000FCF73EFEF86008E0FCF73AFE0246FB68A5
:1036E000D31A022B01D9032306E0064B1B6803F013
:1036F0000063002BF0D0002318461037BD4680BD74
:10370000680047420038024080B582B000AF0D4BE0
:1037100000221A60FCF71CFE786008E0FCF718FE37
:1037200002467B68D31A022B01D9032306E0064B1D
:103730001B6803F00063002BF0D100231846083704
:10374000BD4680BD680047420038024080B584B065
:1037500000AF7860224B00221A60FCF7F9FDF86098
:1037600008E0FCF7F5FD0246FB68D31A022B01D9ED
:10377000032331E01B4B1B6803F00053B3F1005FE0
:10378000EFD018497B681A687B685B689B011A4315
:103790007B689B685B08013B1B041A437B68DB6802
:1037A0001B061343C1F888300D4B01221A60FCF749
:1037B000CFFDF86008E0FCF7CBFD0246FB68D31AAA
:1037C000022B01D9032307E0064B1B6803F00053CB
:1037D000B3F1005FEFD1002318461037BD4680BD1E
:1037E000700047420038024080B582B000AF0E4BF7
:1037F00000221A60FCF7ACFD786008E0FCF7A8FD39
:1038000002467B68D31A022B01D9032307E0074B3A
:103810001B6803F00053B3F1005FEFD0002318469C
:103820000837BD4680BD00BF7000474200380240E7
:103830002DE9F04F91B000AF00237B630023FB63C1
:1038400000233B630023FB620023BB639E4B9B680A
:1038500003F00C030C2B00F22D8101A252F823F08F
:1038600095380008B53A0008B53A0008B53A00089E
:103870009B380008B53A0008B53A0008B53A000888
:10388000A1380008B53A0008B53A0008B53A000872
:10389000B73900088D4BBB630FE18D4BBB630CE167
:1038A000894B5B6803F03F037B63874B5B6803F4E2
:1038B0008003002B23D0844B5B689B094FF00004EE
:1038C00040F2FF114FF0000203EA010304EA020490
:1038D0007F4A02FB04F1002202FB03F20A447C4906
:1038E000A3FB0101531819467B6B4FF000041A46E5
:1038F000234610F063FE03460C46FB634DE0724B1B
:103900005B689B094FF0000440F2FF114FF000028A
:1039100001EA030102EA04020B46144660017862E0
:10392000786A40EAD36078625B013B62D7E9083489
:103930005B1A64EB02044FEA841949EA93694FEA7F
:103940008318B8EB030869EB04094FEAC903FB616C
:10395000FB6943EA5873FB614FEAC803BB61D7E9CF
:10396000068918EB010849EB02094FEA89237B61BC
:103970007B6943EA98537B614FEA88233B61D7E92F
:103980000489404649467B6B4FF000041A462346A3
:1039900010F014FE03460C46FB634B4B5B681B0C9C
:1039A00003F0030301335B003B63FA6B3B6BB2FB39
:1039B000F3F3BB6381E0444B5B6803F03F037B633D
:1039C000414B5B6803F48003002B23D03E4B5B68C4
:1039D0009B094FF0000440F2FF114FF0000203EA90
:1039E000010304EA02043A4A02FB04F1002202FB4A
:1039F00003F20A443649A3FB0101531819467B6BB5
:103A00004FF000041A46234610F0D8FD03460C463A
:103A1000FB6343E02C4B5B689B094FF0000440F2D2
:103A2000FF114FF0000201EA030102EA04020B4613
:103A300014466001F860F86840EAD360F8605B0102
:103A4000BB60D7E902345B1A64EB0204A60146EAC4
:103A500093669D01ED1A66EB0406F3007B607B68BC
:103A600043EA55737B60EB003B6097E860006D189C
:103A700046EB02064FEA862B4BEA955B4FEA852A16
:103A800055465E46284631467B6B4FF000041A4689
:103A9000234610F093FD03460C46FB630A4B5B681C
:103AA0001B0F03F00703FB62FA6BFB6AB2FBF3F335
:103AB000BB6302E0054BBB6300BFBB6B18464437DA
:103AC000BD46BDE8F08F00BF003802400024F4007E
:103AD00040787D0180B582B000AFFCF739FC78609A
:103AE000714A714B1B6843F00103136008E0FCF757
:103AF0002FFC02467B68D31A022B01D90323CEE0A8
:103B0000694B1B6803F00203002BF0D0664A664B3A
:103B10001B6843F080031360FCF71AFC7860624B6B
:103B200000229A600AE0FCF713FC02467B68D31A75
:103B300041F28832934201D90323B0E05A4B9B688B
:103B400003F00C03002BEED1FCF702FC7860564A20
:103B5000554B1B6823F45023136008E0FCF7F8FB77
:103B600002467B68D31A642B01D9032397E04E4B9E
:103B70001B6803F40033002BF0D1FCF7E9FB7860FD
:103B8000494A494B1B6823F08073136008E0FCF737
:103B9000DFFB02467B68D31A022B01D903237EE0A8
:103BA000414B1B6803F00073002BF0D1FCF7D0FBF6
:103BB00078603D4A3C4B1B6823F08063136008E04B
:103BC000FCF7C6FB02467B68D31A022B01D90323FC
:103BD00065E0354B1B6803F00063002BF0D1FCF768
:103BE000B7FB7860304A304B1B6823F0805313607A
:103BF00008E0FCF7ADFB02467B68D31A022B01D923
:103C000003234CE0284B1B6803F00053002BF0D13A
:103C1000254B264A5A60244B244AC3F88420224B61
:103C2000234AC3F88820204A1F4BDB6823F4F8534B
:103C3000D3601D4A1C4BDB6823F40053D3601A4A3F
:103C4000194BDB6823F48043D360174A164BDB68BB
:103C500043F41F03D360144A134BDB6843F400138F
:103C6000D360114A104BDB6843F48003D3600E4AE3
:103C70000D4B5B6F23F0010353670B4A0A4B5B6FDD
:103C800043F0807353670B4B0B4A1A6000200FF010
:103C90009BFB0346002B01D0012300E000231846C4
:103CA0000837BD4680BD00BF0038024010300024F8
:103CB000103000040C0000200024F40080B586B011
:103CC00000AF786000233B617B681B6803F0010351
:103CD000002B00F08380954B9B6803F00C03042BB2
:103CE00019D0924B9B6803F00C03082B06D18F4B25
:103CF0005B6803F48003B3F5800F0CD08B4B9B689B
:103D000003F00C030C2B12D1884B5B6803F4800387
:103D1000B3F5800F0BD1854B1B6803F40033002BE8
:103D20005BD07B685B68002B57D1012316E27B6870
:103D30005B68B3F5803F06D17C4A7C4B1B6843F43B
:103D4000803313601DE07B685B68B3F5A02F0CD156
:103D5000764A764B1B6843F480231360734A734B97
:103D60001B6843F4803313600BE0704A6F4B1B6891
:103D700023F4803313606D4A6C4B1B6823F480235B
:103D800013607B685B68002B13D0FCF7E1FA3861A5
:103D900008E0FCF7DDFA02463B69D31A642B01D92F
:103DA0000323DBE1614B1B6803F40033002BF0D0ED
:103DB00014E0FCF7CDFA386108E0FCF7C9FA0246D6
:103DC0003B69D31A642B01D90323C7E1574B1B6806
:103DD00003F40033002BF0D100E000BF7B681B68C8
:103DE00003F00203002B6FD0504B9B6803F00C03D1
:103DF000002B17D04D4B9B6803F00C03082B05D10B
:103E00004A4B5B6803F48003002B0BD0474B9B6845
:103E100003F00C030C2B1CD1444B5B6803F48003B0
:103E2000002B16D1414B1B6803F00203002B05D079
:103E30007B68DB68012B01D001238FE13B493B4BC1
:103E40001B6823F0F8027B681B69DB0013430B60DF
:103E50003AE07B68DB68002B20D0354B01221A60EA
:103E6000FCF776FA386108E0FCF772FA02463B6923
:103E7000D31A022B01D9032370E12C4B1B6803F0EA
:103E80000203002BF0D02949284B1B6823F0F802CD
:103E90007B681B69DB0013430B6015E0244B002299
:103EA0001A60FCF755FA386108E0FCF751FA02464F
:103EB0003B69D31A022B01D903234FE11B4B1B682B
:103EC00003F00203002BF0D17B681B6803F00803AA
:103ED000002B37D07B685B69002B16D0154B012275
:103EE0001A60FCF735FA386108E0FCF731FA02464F
:103EF0003B69D31A022B01D903232FE10B4B5B6FD4
:103F000003F00203002BF0D01CE00A4B00221A60E1
:103F1000FCF71EFA38610FE0FCF71AFA02463B691B
:103F2000D31A022B08D9032318E100BF003802403E
:103F300000004742800E47428A4B5B6F03F002034A
:103F4000002BE9D17B681B6803F00403002B00F011
:103F500097800023FB75834B1B6C03F08053002B71
:103F60000FD10023FB607F4A7E4B1B6C43F08053D4
:103F700013647C4B1B6C03F08053FB60FB680123D4
:103F8000FB75794B1B6803F48073002B18D1764ABC
:103F9000754B1B6843F480731360FCF7D9F93861E3
:103FA00008E0FCF7D5F902463B69D31A022B01D988
:103FB0000323D3E06C4B1B6803F48073002BF0D019
:103FC0007B689B68012B06D1664A664B1B6F43F0EA
:103FD000010313671CE07B689B68052B0CD1614AC9
:103FE000604B1B6F43F0040313675E4A5D4B1B6F0E
:103FF00043F0010313670BE05A4A5A4B1B6F23F03F
:1040000001031367574A574B1B6F23F004031367D1
:104010007B689B68002B15D0FCF79AF938610AE0A1
:10402000FCF796F902463B69D31A41F28832934273
:1040300001D9032392E04B4B1B6F03F00203002BCB
:10404000EED014E0FCF784F938610AE0FCF780F95F
:1040500002463B69D31A41F28832934201D90323C5
:104060007CE0404B1B6F03F00203002BEED1FB7D85
:10407000012B05D13B4A3B4B1B6C23F0805313644F
:104080007B689B69002B68D0364B9B6803F00C0360
:10409000082B60D07B689B69022B45D1334B0022F3
:1040A0001A60FCF755F9386108E0FCF751F902464F
:1040B0003B69D31A022B01D903234FE0294B1B681C
:1040C00003F00073002BF0D126497B68DA697B6826
:1040D0001B6A1A437B685B6A9B011A437B689B6A75
:1040E0005B08013B1B041A437B68DB6A1B061A430F
:1040F0007B681B6B1B0713434B601C4B01221A6030
:10410000FCF726F9386108E0FCF722F902463B6922
:10411000D31A022B01D9032320E0124B1B6803F0B2
:104120000073002BF0D018E0104B00221A60FCF74F
:104130000FF9386108E0FCF70BF902463B69D31A26
:10414000022B01D9032309E0064B1B6803F000731F
:10415000002BF0D101E0012300E0002318461837BE
:10416000BD4680BD003802400070004060004742FC
:1041700080B483B000AF78607B680F221A60494B2F
:104180001B6803F48023B3F5802F04D17B684FF4C0
:10419000A0225A600EE0434B1B6803F48033B3F552
:1041A000803F04D17B684FF480325A6002E07B6824
:1041B00000225A603B4B1B6803F00103012B03D123
:1041C0007B680122DA6002E07B680022DA60354B0E
:1041D0001B68DB0803F01F027B681A61314B1B6F01
:1041E00003F00403042B03D17B6805229A600CE0E2
:1041F0002C4B1B6F03F00103012B03D17B680122C1
:104200009A6002E07B6800229A60264B5B6F03F0A5
:104210000103012B03D17B6801225A6102E07B6814
:1042200000225A611F4B1B6803F08073B3F1807F3B
:1042300003D17B6802229A6102E07B6801229A61C5
:10424000184B5B6803F480027B68DA61154B5B688E
:1042500003F03F027B681A62124B5B689B09C3F351
:1042600008027B685A620F4B5B6803F4403303F526
:1042700080335B001A0C7B689A620A4B5B681B0EEA
:1042800003F00F027B68DA62064B5B681B0F03F0DA
:1042900007027B681A6300BF0C37BD465DF8047BDC
:1042A000704700BF0038024080B582B000AF786030
:1042B0007B68002B01D101231DE07B6893F83D3022
:1042C000DBB2002B06D17B68002283F83C207868A3
:1042D0000FF00AFB7B68022283F83D207B681A6896
:1042E0007B6804331946104603F0FCFC7B6801220E
:1042F00083F83D20002318460837BD4680BD80B5B1
:1043000082B000AF78607B68022283F83D207B6832
:104310001B681A6A41F211131340002B0FD17B68FE
:104320001B681A6A40F244431340002B07D17B6894
:104330001B687A681268126822F001021A607868B5
:104340000FF034FB7B68002283F83D207B6800225D
:1043500083F83C20002318460837BD4680BD80B452
:1043600083B000AF786000BF0C37BD465DF8047BBA
:10437000704780B483B000AF786000BF0C37BD4693
:104380005DF8047B704780B485B000AF78607B68CF
:10439000022283F83D207B681B689B6803F00703BB
:1043A000FB60FB68062B07D07B681B687A68126885
:1043B000126842F001021A607B68012283F83D20F6
:1043C000002318461437BD465DF8047B704780B45F
:1043D00083B000AF78607B68022283F83D207B6861
:1043E0001B681A6A41F211131340002B0FD17B682E
:1043F0001B681A6A40F244431340002B07D17B68C4
:104400001B687A681268126822F001021A607B68E1
:10441000012283F83D20002318460C37BD465DF885
:10442000047B704780B485B000AF78607B681B6800
:104430007A681268D26842F00102DA607B681B6811
:104440009B6803F00703FB60FB68062B07D07B68C3
:104450001B687A681268126842F001021A60002331
:1044600018461437BD465DF8047B704780B483B0AE
:1044700000AF78607B681B687A681268D26822F0A7
:104480000102DA607B681B681A6A41F2111313405B
:10449000002B0FD17B681B681A6A40F2444313401B
:1044A000002B07D17B681B687A681268126822F0BB
:1044B00001021A60002318460C37BD465DF8047BE4
:1044C000704780B586B000AFF860B9601346FB80D6
:1044D000FB6893F83D30DBB2022B01D1022346E0AA
:1044E000FB6893F83D30DBB2012B0BD1BB68002B8E
:1044F00004D1FB88002B01D0012338E0FB680222A5
:1045000083F83D20FB681B6A1B4ADA63FB681B6A61
:104510001A4A1A64FB681B6A194ADA64FB68186A4B
:10452000B968FB681B682C331A46FB88FCF7CBFC88
:104530000346002B01D0012319E0FB681B68FA68D1
:104540001268D26842F48072DA60FB681B689B686C
:1045500003F007037B617B69062B07D0FB681B68B0
:10456000FA681268126842F001021A6000231846C5
:104570001837BD4680BD00BF557C0008797C000817
:10458000717A000880B582B000AF78607B681B68E4
:104590007A681268D26822F48072DA607B681B6ADB
:1045A0001846FCF760FD7B681B681A6A41F211131C
:1045B0001340002B0FD17B681B681A6A40F24443FA
:1045C0001340002B07D17B681B687A681268126859
:1045D00022F001021A607B68012283F83D2000234B
:1045E00018460837BD4680BD80B582B000AF786000
:1045F0007B68002B01D101231DE07B6893F83D30DF
:10460000DBB2002B06D17B68002283F83C2078685F
:1046100000F045F87B68022283F83D207B681A6829
:104620007B6804331946104603F05CFB7B6801226B
:1046300083F83D20002318460837BD4680BD80B56D
:1046400082B000AF78607B68022283F83D207B68EF
:104650001B681A6A41F211131340002B0FD17B68BB
:104660001B681A6A40F244431340002B07D17B6851
:104670001B687A681268126822F001021A60786872
:1046800000F017F87B68002283F83D207B68002249
:1046900083F83C20002318460837BD4680BD80B40F
:1046A00083B000AF786000BF0C37BD465DF8047B77
:1046B000704780B483B000AF786000BF0C37BD4650
:1046C0005DF8047B704780B584B000AF78603960D6
:1046D0007B681B6801223968184603F09DFF7B68E0
:1046E0001B68154A934204D07B681B68134A9342A7
:1046F00001D1012300E00023002B07D07B681B6859
:104700007A681268526C42F400425A647B681B68F3
:104710009B6803F00703FB60FB68062B07D07B68F0
:104720001B687A681268126842F001021A6000235E
:1047300018461037BD4680BD00000140000401400E
:1047400080B582B000AF786039607B681B6800225A
:104750003968184603F060FF7B681B68204A934263
:1047600004D07B681B681F4A934201D1012300E0FB
:104770000023002B17D07B681B681A6A41F21113C3
:104780001340002B0FD17B681B681A6A40F2444328
:104790001340002B07D17B681B687A681268526C43
:1047A00022F400425A647B681B681A6A41F21113B2
:1047B0001340002B0FD17B681B681A6A40F24443F8
:1047C0001340002B07D17B681B687A681268126857
:1047D00022F001021A60002318460837BD4680BD4A
:1047E000000001400004014080B584B000AF786053
:1047F00039603B680C2B41D801A252F823F000BF6E
:10480000354800087D4800087D4800087D480008BC
:10481000474800087D4800087D4800087D4800089A
:10482000594800087D4800087D4800087D48000878
:104830006B4800087B681B687A681268D26842F08F
:104840000202DA601BE07B681B687A681268D26833
:1048500042F00402DA6012E07B681B687A68126832
:10486000D26842F00802DA6009E07B681B687A6867
:104870001268D26842F01002DA6000E000BF7B6884
:104880001B6801223968184603F0C6FE7B681B6866
:10489000154A934204D07B681B68144A934201D1A5
:1048A000012300E00023002B07D07B681B687A6897
:1048B0001268526C42F400425A647B681B689B6821
:1048C00003F00703FB60FB68062B07D07B681B68BF
:1048D0007A681268126842F001021A6000231846D2
:1048E0001037BD4680BD00BF0000014000040140FC
:1048F00080B582B000AF786039603B680C2B41D83E
:1049000001A252F823F000BF3D4900088549000884
:1049100085490008854900084F4900088549000875
:104920008549000885490008614900088549000853
:104930008549000885490008734900087B681B68A1
:104940007A681268D26822F00202DA601BE07B68A3
:104950001B687A681268D26822F00402DA6012E0FA
:104960007B681B687A681268D26822F00802DA60F5
:1049700009E07B681B687A681268D26822F010022E
:10498000DA6000E000BF7B681B68002239681846C7
:1049900003F042FE7B681B68204A934204D07B6888
:1049A0001B681F4A934201D1012300E00023002B22
:1049B00017D07B681B681A6A41F211131340002B51
:1049C0000FD17B681B681A6A40F244431340002BE6
:1049D00007D17B681B687A681268526C22F4004227
:1049E0005A647B681B681A6A41F211131340002B4A
:1049F0000FD17B681B681A6A40F244431340002BB6
:104A000007D17B681B687A681268126822F001027D
:104A10001A60002318460837BD4680BD00000140DB
:104A20000004014080B586B000AFF860B9607A60DC
:104A30007B80FB6893F83D30DBB2022B01D102236F
:104A4000F3E0FB6893F83D30DBB2012B0BD17B68C0
:104A5000002B04D17B88002B01D00123E5E0FB680B
:104A6000022283F83D20BB680C2B00F2AD8001A22E
:104A700052F823F0A94A0008C94B0008C94B0008A6
:104A8000C94B0008F14A0008C94B0008C94B00088F
:104A9000C94B0008394B0008C94B0008C94B000836
:104AA000C94B0008814B0008FB685B6A614ADA6306
:104AB000FB685B6A604A1A64FB685B6A5F4ADA6497
:104AC000FB68586A7968FB681B6834331A467B8830
:104AD000FCF7F9F90346002B01D00123A5E0FB68A0
:104AE0001B68FA681268D26842F40072DA606CE0FF
:104AF000FB689B6A4F4ADA63FB689B6A4E4A1A64FA
:104B0000FB689B6A4D4ADA64FB68986A7968FB68BF
:104B10001B6838331A467B88FCF7D5F90346002B0F
:104B200001D0012381E0FB681B68FA681268D26833
:104B300042F48062DA6048E0FB68DB6A3D4ADA638F
:104B4000FB68DB6A3C4A1A64FB68DB6A3B4ADA644E
:104B5000FB68D86A7968FB681B683C331A467B8817
:104B6000FCF7B1F90346002B01D001235DE0FB689F
:104B70001B68FA681268D26842F40062DA6024E0C6
:104B8000FB681B6B2B4ADA63FB681B6B2A4A1A64AF
:104B9000FB681B6B294ADA64FB68186B7968FB6851
:104BA0001B6840331A467B88FCF78DF90346002BBF
:104BB00001D0012339E0FB681B68FA681268D268EB
:104BC00042F48052DA6000E000BFFB681B680122FB
:104BD000B968184603F020FDFB681B68184A934229
:104BE00004D0FB681B68174A934201D1012300E0FF
:104BF0000023002B07D0FB681B68FA681268526C10
:104C000042F400425A64FB681B689B6803F0070388
:104C10007B617B69062B07D0FB681B68FA6812680A
:104C2000126842F001021A60002318461837BD4688
:104C300080BD00BF957A0008057B0008717A0008E6
:104C4000000001400004014080B582B000AF7860F0
:104C500039603B680C2B55D801A252F823F000BFF5
:104C6000954C0008054D0008054D0008054D00084D
:104C7000B14C0008054D0008054D0008054D000821
:104C8000CD4C0008054D0008054D0008054D0008F5
:104C9000E94C00087B681B687A681268D26822F4C5
:104CA0000072DA607B685B6A1846FCF7DCF92AE080
:104CB0007B681B687A681268D26822F48062DA60C6
:104CC0007B689B6A1846FCF7CEF91CE07B681B6882
:104CD0007A681268D26822F40062DA607B68DB6A64
:104CE0001846FCF7C0F90EE07B681B687A6812680A
:104CF000D26822F48052DA607B681B6B1846FCF79E
:104D0000B2F900E000BF7B681B68002239681846D2
:104D100003F082FC7B681B68224A934204D07B68C4
:104D20001B68214A934201D1012300E00023002B9C
:104D300017D07B681B681A6A41F211131340002BCD
:104D40000FD17B681B681A6A40F244431340002B62
:104D500007D17B681B687A681268526C22F40042A3
:104D60005A647B681B681A6A41F211131340002BC6
:104D70000FD17B681B681A6A40F244431340002B32
:104D800007D17B681B687A681268126822F00102FA
:104D90001A607B68012283F83D20002318460837FB
:104DA000BD4680BD000001400004014080B582B0D6
:104DB00000AF78607B68002B01D101231DE07B6888
:104DC00093F83D30DBB2002B06D17B68002283F8DC
:104DD0003C20786800F045F87B68022283F83D208B
:104DE0007B681A687B6804331946104602F07AFF24
:104DF0007B68012283F83D20002318460837BD4612
:104E000080BD80B582B000AF78607B68022283F8F5
:104E10003D207B681B681A6A41F211131340002B76
:104E20000FD17B681B681A6A40F244431340002B81
:104E300007D17B681B687A681268126822F0010249
:104E40001A60786800F017F87B68002283F83D202C
:104E50007B68002283F83C20002318460837BD46B3
:104E600080BD80B483B000AF786000BF0C37BD4612
:104E70005DF8047B704780B483B000AF786000BFFA
:104E80000C37BD465DF8047B704780B584B000AF39
:104E9000786039607B681B6801223968184603F026
:104EA000BBFB7B681B68154A934204D07B681B6878
:104EB000134A934201D1012300E00023002B07D0C5
:104EC0007B681B687A681268526C42F400425A642C
:104ED0007B681B689B6803F00703FB60FB68062B7D
:104EE00007D07B681B687A681268126842F001027A
:104EF0001A60002318461037BD4680BD00000140EF
:104F00000004014080B582B000AF786039607B68F2
:104F10001B6800223968184603F07EFB7B681B681B
:104F2000224A934204D07B681B68214A934201D1F4
:104F3000012300E00023002B17D07B681B681A6A4E
:104F400041F211131340002B0FD17B681B681A6AC2
:104F500040F244431340002B07D17B681B687A68FA
:104F60001268526C22F400425A647B681B681A6A09
:104F700041F211131340002B0FD17B681B681A6A92
:104F800040F244431340002B07D17B681B687A68CA
:104F90001268126822F001021A607B68012283F80D
:104FA0003D20002318460837BD4680BD0000014063
:104FB0000004014080B584B000AF786039603B6880
:104FC0000C2B41D801A252F823F000BF0150000879
:104FD0004950000849500008495000081350000883
:104FE0004950000849500008495000082550000861
:104FF000495000084950000849500008375000083F
:105000007B681B687A681268D26842F00202DA6034
:105010001BE07B681B687A681268D26842F0040261
:10502000DA6012E07B681B687A681268D26842F026
:105030000802DA6009E07B681B687A681268D26847
:1050400042F01002DA6000E000BF7B681B680122BA
:105050003968184603F0E0FA7B681B68154A9342EA
:1050600004D07B681B68144A934201D1012300E0FD
:105070000023002B07D07B681B687A681268526C8B
:1050800042F400425A647B681B689B6803F0070384
:10509000FB60FB68062B07D07B681B687A68126888
:1050A000126842F001021A60002318461037BD460C
:1050B00080BD00BF000001400004014080B582B007
:1050C00000AF786039603B680C2B41D801A252F8E0
:1050D00023F000BF09510008515100085151000848
:1050E000515100081B51000851510008515100084E
:1050F000515100082D51000851510008515100082C
:10510000515100083F5100087B681B687A6812689B
:10511000D26822F00202DA601BE07B681B687A68C2
:105120001268D26822F00402DA6012E07B681B6821
:105130007A681268D26822F00802DA6009E07B68B7
:105140001B687A681268D26822F01002DA6000E008
:1051500000BF7B681B6800223968184603F05CFAC0
:105160007B681B68204A934204D07B681B681F4AF7
:10517000934201D1012300E00023002B17D07B686C
:105180001B681A6A41F211131340002B0FD17B6880
:105190001B681A6A40F244431340002B07D17B6816
:1051A0001B687A681268526C22F400425A647B6869
:1051B0001B681A6A41F211131340002B0FD17B6850
:1051C0001B681A6A40F244431340002B07D17B68E6
:1051D0001B687A681268126822F001021A600023C4
:1051E00018460837BD4680BD00000140000401405C
:1051F00080B586B000AFF860B9607A607B80FB68EC
:1052000093F83D30DBB2022B01D10223F3E0FB68BF
:1052100093F83D30DBB2012B0BD17B68002B04D11E
:105220007B88002B01D00123E5E0FB68022283F894
:105230003D20BB680C2B00F2AD8001A252F823F098
:1052400075520008955300089553000895530008BF
:10525000BD52000895530008955300089553000867
:10526000055300089553000895530008955300080E
:105270004D530008FB685B6A614ADA63FB685B6A4E
:10528000604A1A64FB685B6A5F4ADA64FB68586AC2
:105290007968FB681B6834331A467B88FBF713FE7A
:1052A0000346002B01D00123A5E0FB681B68FA68C8
:1052B0001268D26842F40072DA606CE0FB689B6AA4
:1052C0004F4ADA63FB689B6A4E4A1A64FB689B6A22
:1052D0004D4ADA64FB68986A7968FB681B68383362
:1052E0001A467B88FBF7EFFD0346002B01D0012314
:1052F00081E0FB681B68FA681268D26842F4806239
:10530000DA6048E0FB68DB6A3D4ADA63FB68DB6A27
:105310003C4A1A64FB68DB6A3B4ADA64FB68D86A79
:105320007968FB681B683C331A467B88FBF7CBFD2A
:105330000346002B01D001235DE0FB681B68FA687F
:105340001268D26842F40062DA6024E0FB681B6BEA
:105350002B4ADA63FB681B6B2A4A1A64FB681B6BD7
:10536000294ADA64FB68186B7968FB681B6840336C
:105370001A467B88FBF7A7FD0346002B01D00123CB
:1053800039E0FB681B68FA681268D26842F4805200
:10539000DA6000E000BFFB681B680122B9681846AC
:1053A00003F03AF9FB681B68184A934204D0FB6883
:1053B0001B68174A934201D1012300E00023002B10
:1053C00007D0FB681B68FA681268526C42F400420E
:1053D0005A64FB681B689B6803F007037B617B6969
:1053E000062B07D0FB681B68FA681268126842F047
:1053F00001021A60002318461837BD4680BD00BF61
:10540000957A0008057B0008717A000800000140C9
:105410000004014080B582B000AF786039603B681D
:105420000C2B55D801A252F823F000BF615400089C
:10543000D1540008D1540008D15400087D5400080C
:10544000D1540008D1540008D154000899540008E0
:10545000D1540008D1540008D1540008B5540008B4
:105460007B681B687A681268D26822F40072DA607E
:105470007B685B6A1846FBF7F6FD2AE07B681B68D1
:105480007A681268D26822F48062DA607B689B6A6C
:105490001846FBF7E8FD1CE07B681B687A68126819
:1054A000D26822F40062DA607B68DB6A1846FBF798
:1054B000DAFD0EE07B681B687A681268D26822F415
:1054C0008052DA607B681B6B1846FBF7CCFD00E06E
:1054D00000BF7B681B6800223968184603F09CF8FF
:1054E0007B681B68224A934204D07B681B68214A70
:1054F000934201D1012300E00023002B17D07B68E9
:105500001B681A6A41F211131340002B0FD17B68FC
:105510001B681A6A40F244431340002B07D17B6892
:105520001B687A681268526C22F400425A647B68E5
:105530001B681A6A41F211131340002B0FD17B68CC
:105540001B681A6A40F244431340002B07D17B6862
:105550001B687A681268126822F001021A607B6880
:10556000012283F83D20002318460837BD4680BD40
:10557000000001400004014080B582B000AF7860B7
:105580007B68002B01D101231DE07B6893F83D303F
:10559000DBB2002B06D17B68002283F83C207868C0
:1055A00000F045F87B68022283F83D207B681A688A
:1055B0007B6804331946104602F094FB7B68012295
:1055C00083F83D20002318460837BD4680BD80B5CE
:1055D00082B000AF78607B68022283F83D207B6850
:1055E0001B681A6A41F211131340002B0FD17B681C
:1055F0001B681A6A40F244431340002B07D17B68B2
:105600001B687A681268126822F001021A607868D2
:1056100000F017F87B68002283F83D207B680022A9
:1056200083F83C20002318460837BD4680BD80B46F
:1056300083B000AF786000BF0C37BD465DF8047BD7
:10564000704780B483B000AF786000BF0C37BD46B0
:105650005DF8047B704780B584B000AF7860396036
:105660007B681B6801223968184602F0D5FF7B6809
:105670001B689B6803F00703FB60FB68062B07D0E1
:105680007B681B687A681268126842F001021A602F
:10569000002318461037BD4680BD80B582B000AFEC
:1056A000786039607B681B6800223968184602F010
:1056B000B3FF7B681B681A6A41F211131340002B79
:1056C0000FD17B681B681A6A40F244431340002BD9
:1056D00007D17B681B687A681268126822F00102A1
:1056E0001A60002318460837BD4680BD80B584B0D7
:1056F00000AF786039603B680C2B41D801A252F8AA
:1057000023F000BF3957000881570008815700086F
:10571000815700084B57000881570008815700083F
:10572000815700085D57000881570008815700081D
:10573000815700086F5700087B681B687A681268F9
:10574000D26842F00202DA601BE07B681B687A686C
:105750001268D26842F00402DA6012E07B681B68CB
:105760007A681268D26842F00802DA6009E07B6861
:105770001B687A681268D26842F01002DA6000E0B2
:1057800000BF7B681B6801223968184602F044FF9D
:105790007B681B689B6803F00703FB60FB68062BB4
:1057A00007D07B681B687A681268126842F00102B1
:1057B0001A60002318461037BD4680BD80B582B000
:1057C00000AF786039603B680C2B41D801A252F8D9
:1057D00023F000BF0958000851580008515800082C
:1057E000515800081B58000851580008515800082B
:1057F000515800082D580008515800085158000809
:10580000515800083F5800087B681B687A68126886
:10581000D26822F00202DA601BE07B681B687A68BB
:105820001268D26822F00402DA6012E07B681B681A
:105830007A681268D26822F00802DA6009E07B68B0
:105840001B687A681268D26822F01002DA6000E001
:1058500000BF7B681B6800223968184602F0DCFE36
:105860007B681B681A6A41F211131340002B0FD199
:105870007B681B681A6A40F244431340002B07D12F
:105880007B681B687A681268126822F001021A604D
:10589000002318460837BD4680BD80B586B000AFEE
:1058A000F860B9607A607B80FB6893F83D30DBB2CA
:1058B000022B01D10223DDE0FB6893F83D30DBB21F
:1058C000012B0BD17B68002B04D17B88002B01D0EE
:1058D0000123CFE0FB68022283F83D20BB680C2B3C
:1058E00000F2AE8001A252F823F000BF2159000857
:1058F000415A0008415A0008415A000869590008F5
:10590000415A0008415A0008415A0008B15900089C
:10591000415A0008415A0008415A0008F959000844
:10592000FB685B6A554ADA63FB685B6A544A1A642F
:10593000FB685B6A534ADA64FB68586AFB681B6859
:10594000343319467A687B88FBF7BDFA0346002B8F
:1059500001D001238EE0FB681B68FA681268D268E8
:1059600042F40072DA606CE0FB689B6A434ADA63D7
:10597000FB689B6A424A1A64FB689B6A414ADA6484
:10598000FB68986AFB681B68383319467A687B881D
:10599000FBF799FA0346002B01D001236AE0FB686C
:1059A0001B68FA681268D26842F48062DA6048E0E4
:1059B000FB68DB6A314ADA63FB68DB6A304A1A64E7
:1059C000FB68DB6A2F4ADA64FB68D86AFB681B68ED
:1059D0003C3319467A687B88FBF775FA0346002B3F
:1059E00001D0012346E0FB681B68FA681268D268A0
:1059F00042F40062DA6024E0FB681B6B1F4ADA6342
:105A0000FB681B6B1E4A1A64FB681B6B1D4ADA6439
:105A1000FB68186BFB681B68403319467A687B8803
:105A2000FBF751FA0346002B01D0012322E0FB686B
:105A30001B68FA681268D26842F48052DA6000E0AB
:105A400000BFFB681B680122B968184602F0E4FD3C
:105A5000FB681B689B6803F007037B617B69062B6F
:105A600007D0FB681B68FA681268126842F00102EE
:105A70001A60002318461837BD4680BD757B0008A4
:105A8000E57B0008717A000880B582B000AF7860CD
:105A900039603B680C2B55D801A252F823F000BFA7
:105AA000D55A0008455B0008455B0008455B0008C7
:105AB000F15A0008455B0008455B0008455B00089B
:105AC0000D5B0008455B0008455B0008455B00086E
:105AD000295B00087B681B687A681268D26822F428
